{
  "_format": "hh-sol-artifact-1",
  "contractName": "ComsatsCoin",
  "sourceName": "contracts/ComsatsCoin.sol",
  "abi": [
    {
      "inputs": [
        {
          "internalType": "uint256",
          "name": "_initialSupply",
          "type": "uint256"
        }
      ],
      "stateMutability": "nonpayable",
      "type": "constructor"
    },
    {
      "anonymous": false,
      "inputs": [
        {
          "indexed": true,
          "internalType": "address",
          "name": "_owner",
          "type": "address"
        },
        {
          "indexed": true,
          "internalType": "address",
          "name": "_spender",
          "type": "address"
        },
        {
          "indexed": false,
          "internalType": "uint256",
          "name": "_value",
          "type": "uint256"
        }
      ],
      "name": "Approval",
      "type": "event"
    },
    {
      "anonymous": false,
      "inputs": [
        {
          "indexed": true,
          "internalType": "address",
          "name": "_from",
          "type": "address"
        },
        {
          "indexed": true,
          "internalType": "address",
          "name": "_to",
          "type": "address"
        },
        {
          "indexed": false,
          "internalType": "uint256",
          "name": "_value",
          "type": "uint256"
        }
      ],
      "name": "Transfer",
      "type": "event"
    },
    {
      "inputs": [],
      "name": "_userId",
      "outputs": [
        {
          "internalType": "uint256",
          "name": "",
          "type": "uint256"
        }
      ],
      "stateMutability": "view",
      "type": "function"
    },
    {
      "inputs": [
        {
          "internalType": "address",
          "name": "",
          "type": "address"
        },
        {
          "internalType": "address",
          "name": "",
          "type": "address"
        }
      ],
      "name": "allownce",
      "outputs": [
        {
          "internalType": "uint256",
          "name": "",
          "type": "uint256"
        }
      ],
      "stateMutability": "view",
      "type": "function"
    },
    {
      "inputs": [
        {
          "internalType": "address",
          "name": "",
          "type": "address"
        }
      ],
      "name": "balanceOf",
      "outputs": [
        {
          "internalType": "uint256",
          "name": "",
          "type": "uint256"
        }
      ],
      "stateMutability": "view",
      "type": "function"
    },
    {
      "inputs": [],
      "name": "getTokenHolder",
      "outputs": [
        {
          "internalType": "address[]",
          "name": "",
          "type": "address[]"
        }
      ],
      "stateMutability": "view",
      "type": "function"
    },
    {
      "inputs": [
        {
          "internalType": "address",
          "name": "_address",
          "type": "address"
        }
      ],
      "name": "getTokenHolderData",
      "outputs": [
        {
          "internalType": "uint256",
          "name": "",
          "type": "uint256"
        },
        {
          "internalType": "address",
          "name": "",
          "type": "address"
        },
        {
          "internalType": "address",
          "name": "",
          "type": "address"
        },
        {
          "internalType": "uint256",
          "name": "",
          "type": "uint256"
        },
        {
          "internalType": "bool",
          "name": "",
          "type": "bool"
        }
      ],
      "stateMutability": "view",
      "type": "function"
    },
    {
      "inputs": [
        {
          "internalType": "uint256",
          "name": "",
          "type": "uint256"
        }
      ],
      "name": "holderToken",
      "outputs": [
        {
          "internalType": "address",
          "name": "",
          "type": "address"
        }
      ],
      "stateMutability": "view",
      "type": "function"
    },
    {
      "inputs": [
        {
          "internalType": "uint256",
          "name": "tokensToMint",
          "type": "uint256"
        }
      ],
      "name": "mint",
      "outputs": [],
      "stateMutability": "nonpayable",
      "type": "function"
    },
    {
      "inputs": [],
      "name": "name",
      "outputs": [
        {
          "internalType": "string",
          "name": "",
          "type": "string"
        }
      ],
      "stateMutability": "view",
      "type": "function"
    },
    {
      "inputs": [],
      "name": "owner",
      "outputs": [
        {
          "internalType": "address",
          "name": "",
          "type": "address"
        }
      ],
      "stateMutability": "view",
      "type": "function"
    },
    {
      "inputs": [],
      "name": "standard",
      "outputs": [
        {
          "internalType": "string",
          "name": "",
          "type": "string"
        }
      ],
      "stateMutability": "view",
      "type": "function"
    },
    {
      "inputs": [],
      "name": "symbol",
      "outputs": [
        {
          "internalType": "string",
          "name": "",
          "type": "string"
        }
      ],
      "stateMutability": "view",
      "type": "function"
    },
    {
      "inputs": [
        {
          "internalType": "address",
          "name": "",
          "type": "address"
        }
      ],
      "name": "tokenHolderInfos",
      "outputs": [
        {
          "internalType": "uint256",
          "name": "_tokenId",
          "type": "uint256"
        },
        {
          "internalType": "address",
          "name": "_from",
          "type": "address"
        },
        {
          "internalType": "address",
          "name": "_to",
          "type": "address"
        },
        {
          "internalType": "uint256",
          "name": "_totalToken",
          "type": "uint256"
        },
        {
          "internalType": "bool",
          "name": "_tokenHolder",
          "type": "bool"
        }
      ],
      "stateMutability": "view",
      "type": "function"
    },
    {
      "inputs": [],
      "name": "totalSupply",
      "outputs": [
        {
          "internalType": "uint256",
          "name": "",
          "type": "uint256"
        }
      ],
      "stateMutability": "view",
      "type": "function"
    },
    {
      "inputs": [
        {
          "internalType": "address",
          "name": "_to",
          "type": "address"
        },
        {
          "internalType": "uint256",
          "name": "_value",
          "type": "uint256"
        }
      ],
      "name": "transfer",
      "outputs": [
        {
          "internalType": "bool",
          "name": "success",
          "type": "bool"
        }
      ],
      "stateMutability": "nonpayable",
      "type": "function"
    },
    {
      "inputs": [
        {
          "internalType": "address",
          "name": "_from",
          "type": "address"
        },
        {
          "internalType": "address",
          "name": "_to",
          "type": "address"
        },
        {
          "internalType": "uint256",
          "name": "_value",
          "type": "uint256"
        }
      ],
      "name": "transferFrom",
      "outputs": [
        {
          "internalType": "bool",
          "name": "success",
          "type": "bool"
        }
      ],
      "stateMutability": "nonpayable",
      "type": "function"
    }
  ],
  "bytecode": "0x60806040526040518060400160405280600c81526020017f436f6d7361747320436f696e0000000000000000000000000000000000000000815250600090816200004a919062000419565b506040518060400160405280600281526020017f43430000000000000000000000000000000000000000000000000000000000008152506001908162000091919062000419565b506040518060400160405280601181526020017f636f6d73617473436f696e20762e302e3100000000000000000000000000000081525060029081620000d8919062000419565b50348015620000e657600080fd5b50604051620019ee380380620019ee83398181016040528101906200010c919062000536565b33600460006101000a81548173ffffffffffffffffffffffffffffffffffffffff021916908373ffffffffffffffffffffffffffffffffffffffff16021790555080600860003373ffffffffffffffffffffffffffffffffffffffff1673ffffffffffffffffffffffffffffffffffffffff16815260200190815260200160002081905550806003819055505062000568565b600081519050919050565b7f4e487b7100000000000000000000000000000000000000000000000000000000600052604160045260246000fd5b7f4e487b7100000000000000000000000000000000000000000000000000000000600052602260045260246000fd5b600060028204905060018216806200022157607f821691505b602082108103620002375762000236620001d9565b5b50919050565b60008190508160005260206000209050919050565b60006020601f8301049050919050565b600082821b905092915050565b600060088302620002a17fffffffffffffffffffffffffffffffffffffffffffffffffffffffffffffffff8262000262565b620002ad868362000262565b95508019841693508086168417925050509392505050565b6000819050919050565b6000819050919050565b6000620002fa620002f4620002ee84620002c5565b620002cf565b620002c5565b9050919050565b6000819050919050565b6200031683620002d9565b6200032e620003258262000301565b8484546200026f565b825550505050565b600090565b6200034562000336565b620003528184846200030b565b505050565b5b818110156200037a576200036e6000826200033b565b60018101905062000358565b5050565b601f821115620003c95762000393816200023d565b6200039e8462000252565b81016020851015620003ae578190505b620003c6620003bd8562000252565b83018262000357565b50505b505050565b600082821c905092915050565b6000620003ee60001984600802620003ce565b1980831691505092915050565b6000620004098383620003db565b9150826002028217905092915050565b62000424826200019f565b67ffffffffffffffff81111562000440576200043f620001aa565b5b6200044c825462000208565b620004598282856200037e565b600060209050601f8311600181146200049157600084156200047c578287015190505b620004888582620003fb565b865550620004f8565b601f198416620004a1866200023d565b60005b82811015620004cb57848901518255600182019150602085019450602081019050620004a4565b86831015620004eb5784890151620004e7601f891682620003db565b8355505b6001600288020188555050505b505050505050565b600080fd5b6200051081620002c5565b81146200051c57600080fd5b50565b600081519050620005308162000505565b92915050565b6000602082840312156200054f576200054e62000500565b5b60006200055f848285016200051f565b91505092915050565b61147680620005786000396000f3fe608060405234801561001057600080fd5b50600436106100f55760003560e01c806382b6826311610097578063a20bc7fe11610066578063a20bc7fe146102a4578063a9059cbb146102d4578063ba8e355714610304578063bc4530e714610322576100f5565b806382b68263146102185780638da5cb5b1461024c57806395d89b411461026a578063a0712d6814610288576100f5565b806329cc66ed116100d357806329cc66ed146101665780635a3b7e421461019a57806370a08231146101b8578063760b06c5146101e8576100f5565b806306fdde03146100fa57806318160ddd1461011857806323b872dd14610136575b600080fd5b610102610340565b60405161010f9190610ef0565b60405180910390f35b6101206103ce565b60405161012d9190610f2b565b60405180910390f35b610150600480360381019061014b9190610fd5565b6103d4565b60405161015d9190611043565b60405180910390f35b610180600480360381019061017b919061105e565b6105c7565b60405161019195949392919061109a565b60405180910390f35b6101a261064a565b6040516101af9190610ef0565b60405180910390f35b6101d260048036038101906101cd919061105e565b6106d8565b6040516101df9190610f2b565b60405180910390f35b61020260048036038101906101fd91906110ed565b6106f0565b60405161020f919061111a565b60405180910390f35b610232600480360381019061022d919061105e565b61072f565b60405161024395949392919061109a565b60405180910390f35b6102546108e6565b604051610261919061111a565b60405180910390f35b61027261090c565b60405161027f9190610ef0565b60405180910390f35b6102a2600480360381019061029d91906110ed565b61099a565b005b6102be60048036038101906102b99190611135565b610abe565b6040516102cb9190610f2b565b60405180910390f35b6102ee60048036038101906102e99190611175565b610ae3565b6040516102fb9190611043565b60405180910390f35b61030c610db2565b6040516103199190611273565b60405180910390f35b61032a610e40565b6040516103379190610f2b565b60405180910390f35b6000805461034d906112c4565b80601f0160208091040260200160405190810160405280929190818152602001828054610379906112c4565b80156103c65780601f1061039b576101008083540402835291602001916103c6565b820191906000526020600020905b8154815290600101906020018083116103a957829003601f168201915b505050505081565b60035481565b600081600860008673ffffffffffffffffffffffffffffffffffffffff1673ffffffffffffffffffffffffffffffffffffffff16815260200190815260200160002054101561042257600080fd5b81600960008673ffffffffffffffffffffffffffffffffffffffff1673ffffffffffffffffffffffffffffffffffffffff16815260200190815260200160002060003373ffffffffffffffffffffffffffffffffffffffff1673ffffffffffffffffffffffffffffffffffffffff1681526020019081526020016000205410156104ab57600080fd5b81600860008673ffffffffffffffffffffffffffffffffffffffff1673ffffffffffffffffffffffffffffffffffffffff16815260200190815260200160002060008282546104fa9190611324565b9250508190555081600860008573ffffffffffffffffffffffffffffffffffffffff1673ffffffffffffffffffffffffffffffffffffffff16815260200190815260200160002060008282546105509190611358565b925050819055508273ffffffffffffffffffffffffffffffffffffffff168473ffffffffffffffffffffffffffffffffffffffff167fddf252ad1be2c89b69c2b068fc378daa952ba7f163c4a11628f55a4df523b3ef846040516105b49190610f2b565b60405180910390a3600190509392505050565b60076020528060005260406000206000915090508060000154908060010160009054906101000a900473ffffffffffffffffffffffffffffffffffffffff16908060020160009054906101000a900473ffffffffffffffffffffffffffffffffffffffff16908060030154908060040160009054906101000a900460ff16905085565b60028054610657906112c4565b80601f0160208091040260200160405190810160405280929190818152602001828054610683906112c4565b80156106d05780601f106106a5576101008083540402835291602001916106d0565b820191906000526020600020905b8154815290600101906020018083116106b357829003601f168201915b505050505081565b60086020528060005260406000206000915090505481565b6006818154811061070057600080fd5b906000526020600020016000915054906101000a900473ffffffffffffffffffffffffffffffffffffffff1681565b6000806000806000600760008773ffffffffffffffffffffffffffffffffffffffff1673ffffffffffffffffffffffffffffffffffffffff16815260200190815260200160002060000154600760008873ffffffffffffffffffffffffffffffffffffffff1673ffffffffffffffffffffffffffffffffffffffff16815260200190815260200160002060020160009054906101000a900473ffffffffffffffffffffffffffffffffffffffff16600760008973ffffffffffffffffffffffffffffffffffffffff1673ffffffffffffffffffffffffffffffffffffffff16815260200190815260200160002060010160009054906101000a900473ffffffffffffffffffffffffffffffffffffffff16600760008a73ffffffffffffffffffffffffffffffffffffffff1673ffffffffffffffffffffffffffffffffffffffff16815260200190815260200160002060030154600760008b73ffffffffffffffffffffffffffffffffffffffff1673ffffffffffffffffffffffffffffffffffffffff16815260200190815260200160002060040160009054906101000a900460ff169450945094509450945091939590929450565b600460009054906101000a900473ffffffffffffffffffffffffffffffffffffffff1681565b60018054610919906112c4565b80601f0160208091040260200160405190810160405280929190818152602001828054610945906112c4565b80156109925780601f1061096757610100808354040283529160200191610992565b820191906000526020600020905b81548152906001019060200180831161097557829003601f168201915b505050505081565b600460009054906101000a900473ffffffffffffffffffffffffffffffffffffffff1673ffffffffffffffffffffffffffffffffffffffff163373ffffffffffffffffffffffffffffffffffffffff1614610a2a576040517f08c379a0000000000000000000000000000000000000000000000000000000008152600401610a21906113d8565b60405180910390fd5b8060086000600460009054906101000a900473ffffffffffffffffffffffffffffffffffffffff1673ffffffffffffffffffffffffffffffffffffffff1673ffffffffffffffffffffffffffffffffffffffff1681526020019081526020016000206000828254610a9b9190611358565b925050819055508060036000828254610ab49190611358565b9250508190555050565b6009602052816000526040600020602052806000526040600020600091509150505481565b600081600860003373ffffffffffffffffffffffffffffffffffffffff1673ffffffffffffffffffffffffffffffffffffffff168152602001908152602001600020541015610b3157600080fd5b610b39610e46565b81600860003373ffffffffffffffffffffffffffffffffffffffff1673ffffffffffffffffffffffffffffffffffffffff1681526020019081526020016000206000828254610b889190611324565b9250508190555081600860008573ffffffffffffffffffffffffffffffffffffffff1673ffffffffffffffffffffffffffffffffffffffff1681526020019081526020016000206000828254610bde9190611358565b925050819055506000600760008573ffffffffffffffffffffffffffffffffffffffff1673ffffffffffffffffffffffffffffffffffffffff1681526020019081526020016000209050838160020160006101000a81548173ffffffffffffffffffffffffffffffffffffffff021916908373ffffffffffffffffffffffffffffffffffffffff160217905550338160010160006101000a81548173ffffffffffffffffffffffffffffffffffffffff021916908373ffffffffffffffffffffffffffffffffffffffff16021790555060018160040160006101000a81548160ff02191690831515021790555082816003018190555060055481600001819055506006849080600181540180825580915050600190039060005260206000200160009091909190916101000a81548173ffffffffffffffffffffffffffffffffffffffff021916908373ffffffffffffffffffffffffffffffffffffffff1602179055508373ffffffffffffffffffffffffffffffffffffffff163373ffffffffffffffffffffffffffffffffffffffff167fddf252ad1be2c89b69c2b068fc378daa952ba7f163c4a11628f55a4df523b3ef85604051610d9f9190610f2b565b60405180910390a3600191505092915050565b60606006805480602002602001604051908101604052809291908181526020018280548015610e3657602002820191906000526020600020905b8160009054906101000a900473ffffffffffffffffffffffffffffffffffffffff1673ffffffffffffffffffffffffffffffffffffffff1681526020019060010190808311610dec575b5050505050905090565b60055481565b60056000815480929190610e59906113f8565b9190505550565b600081519050919050565b600082825260208201905092915050565b60005b83811015610e9a578082015181840152602081019050610e7f565b60008484015250505050565b6000601f19601f8301169050919050565b6000610ec282610e60565b610ecc8185610e6b565b9350610edc818560208601610e7c565b610ee581610ea6565b840191505092915050565b60006020820190508181036000830152610f0a8184610eb7565b905092915050565b6000819050919050565b610f2581610f12565b82525050565b6000602082019050610f406000830184610f1c565b92915050565b600080fd5b600073ffffffffffffffffffffffffffffffffffffffff82169050919050565b6000610f7682610f4b565b9050919050565b610f8681610f6b565b8114610f9157600080fd5b50565b600081359050610fa381610f7d565b92915050565b610fb281610f12565b8114610fbd57600080fd5b50565b600081359050610fcf81610fa9565b92915050565b600080600060608486031215610fee57610fed610f46565b5b6000610ffc86828701610f94565b935050602061100d86828701610f94565b925050604061101e86828701610fc0565b9150509250925092565b60008115159050919050565b61103d81611028565b82525050565b60006020820190506110586000830184611034565b92915050565b60006020828403121561107457611073610f46565b5b600061108284828501610f94565b91505092915050565b61109481610f6b565b82525050565b600060a0820190506110af6000830188610f1c565b6110bc602083018761108b565b6110c9604083018661108b565b6110d66060830185610f1c565b6110e36080830184611034565b9695505050505050565b60006020828403121561110357611102610f46565b5b600061111184828501610fc0565b91505092915050565b600060208201905061112f600083018461108b565b92915050565b6000806040838503121561114c5761114b610f46565b5b600061115a85828601610f94565b925050602061116b85828601610f94565b9150509250929050565b6000806040838503121561118c5761118b610f46565b5b600061119a85828601610f94565b92505060206111ab85828601610fc0565b9150509250929050565b600081519050919050565b600082825260208201905092915050565b6000819050602082019050919050565b6111ea81610f6b565b82525050565b60006111fc83836111e1565b60208301905092915050565b6000602082019050919050565b6000611220826111b5565b61122a81856111c0565b9350611235836111d1565b8060005b8381101561126657815161124d88826111f0565b975061125883611208565b925050600181019050611239565b5085935050505092915050565b6000602082019050818103600083015261128d8184611215565b905092915050565b7f4e487b7100000000000000000000000000000000000000000000000000000000600052602260045260246000fd5b600060028204905060018216806112dc57607f821691505b6020821081036112ef576112ee611295565b5b50919050565b7f4e487b7100000000000000000000000000000000000000000000000000000000600052601160045260246000fd5b600061132f82610f12565b915061133a83610f12565b9250828203905081811115611352576113516112f5565b5b92915050565b600061136382610f12565b915061136e83610f12565b9250828201905080821115611386576113856112f5565b5b92915050565b7f4f6e6c79204f776e65722063616e206d696e74206d6f726520746f6b656e7300600082015250565b60006113c2601f83610e6b565b91506113cd8261138c565b602082019050919050565b600060208201905081810360008301526113f1816113b5565b9050919050565b600061140382610f12565b91507fffffffffffffffffffffffffffffffffffffffffffffffffffffffffffffffff8203611435576114346112f5565b5b60018201905091905056fea2646970667358221220cd3d366e1aec35882a73d2ac71756065718ed9b43cb336cfb7ce0dccca4f2a9d64736f6c63430008120033",
  "linkReferences": {},
  "deployedLinkReferences": {}
}